:100000000C9494010C94C5010C94C5010C94C50189
:100010000C94C5010C94C5010C94C5010C94C50148
:100020000C94C5010C94C5010C94C5010C94C50138
:100030000C94C5010C94C5010C94C5010C94C50128
:100040000C94C5010C94C5010C94C5010C94C50118
:100050000C94C5010C94C5010C94C5010C94410A83
:100060000C94C5010C94710E0C94A70E0C94C50150
:100070000C94C5010C94C5010C94C5010C94C501E8
:100080000C94C5010C94C5010C94C5010C94C501D8
:100090000C94C5010C94C5010C94C5010C94C501C8
:1000A0000C94C5010C94C5010C94C5010C94C501B8
:1000B0000C94C5010C94C5010C94C5010C94C501A8
:1000C0000C94C5010C94C5010C94C5010C94C50198
:1000D0000C94C5010C94C5010C94C5010C94C50188
:1000E0000C94C5019A0B9F0BA40BAE0BB80B310CF3
:1000F000C20BCA0BD20BDC0BE60BF00BFF0B090C8F
:10010000310C130C1D0C270C530C560C450C490CD0
:100110004F0C8D0C5A0C5E0C640C680C6C0C720C41
:10012000760C7A0C8D0C800C840C880C0C945E0C74
:100130000C94560C0C94880D0C94F00B0C94310C10
:100140000C94D20B0C94FF0B0C94270C0C949A0B70
:100150000C94160D0C94AE0B0C946C0C0C947A0C45
:100160000C94530C0C942A0D0C94680C0C944F0CAA
:100170000C94E60B0C94450C0C94C20B0C941D0CC7
:100180000C94CA0B0C94800C0C94640C0C94A40B6F
:100190000C94DB0E0C94AA0D0C948D0C0C94090C91
:1001A0000C94B80B0C94720C0C945A0C0C94DC0B41
:1001B0000C94760C0C949F0B0C94490C0C94FD0C35
:1001C0000C94080D0C94840C0C94880C0C94130C57
:1001D0000C94010A0C94D10E0C942E0F11121314CE
:1001E00015160A0B0C0D0E0F0001020304057961B0
:1001F000006661696C6564006D616E64616E646F58
:100200002000726563696269656E646F20646520B1
:1002100000656D70657A616E646F2E2E2E00000091
:100220000A0B02090C0D0E08070304010000000070
:1002300000000000000000000000000000000000BE
:10024000000000000000000000001211100000007B
:10025000000000000000000000000000000000009E
:10026000000000000102102020080810204010208B
:10027000408002010201080402010102040810206A
:100280004080804020100804020180040201804068
:1002900020100804020108040201010204081020D1
:1002A000408001020408102040800505050507056F
:1002B00008080808020202020A0A080804040404E2
:1002C000010101010101010103030303030303030E
:1002D000040707070C0C0C0C0C0C0C0C020202029D
:1002E00006060606060606060B0B0B0B0B0B0B0B86
:1002F00000002200250028002B002E0031003400D1
:1003000002010000050108010B010000210024008A
:1003100027002A002D0030003300010100000401F5
:1003200007010A01010ADB0E11241FBECFEFD1E243
:10033000DEBFCDBF00E00CBF12E0A0E0B2E0ECE217
:10034000F4E200E00BBF02C007900D92A436B107A3
:10035000D9F723E0A4E6B2E001C01D92A43EB207A3
:10036000E1F713E0C8E2D3E000E006C022970109FC
:10037000FE010BBF0E949511C432D10780E008072F
:10038000A9F70E941F0F0C9414120C940000CF9335
:10039000DF93EC019F898B81992329F06FEF70E047
:1003A000681B710902C0682F70E089850E94740B78
:1003B0009F898C81992329F06FEF70E0681B710988
:1003C00002C0682F70E08B850E94740B9F898D811D
:1003D000992329F06FEF70E0681B710902C0682F44
:1003E00070E08D85DF91CF910C94740B0F931F9368
:1003F000FC0181E00785108921893289438954896C
:1004000065897689041715072607370709F080E004
:100410001F910F910895CF92DF92EF92FF920F9369
:100420001F93CF93DF93EC01670178018B81888361
:100430008C8189838D818A836E834F8328870E9474
:100440008B0A6F87788B898B9A8BDC01CB018C0DA3
:100450009D1DAE1DBF1D8B8B9C8BAD8BBE8BDF910D
:10046000CF911F910F91FF90EF90DF90CF90089563
:10047000CF92DF92EF92FF920F931F93CF93DF9370
:1004800000D01F92CDB7DEB76C01862FF6016187D1
:10049000728761E02B833C8349835A830E948E0CD0
:1004A0004981F60143875A81548761E0842F0E9475
:1004B0008E0C2B81F60125873C81368761E0822FE7
:1004C0000E948E0CF601158214821382078BC601DE
:1004D0000E94C70114EFE12EFF24F39400E010E026
:1004E0002FEF4FEF6FEFC6010E940B020F900F909E
:1004F0000F900F90DF91CF911F910F91FF90EF9090
:10050000DF90CF9008954F925F926F927F92AF925B
:10051000BF92CF92DF92EF92FF920F931F93CF93F0
:10052000DF93EC010E948B0A2B013C01EB88FC88D5
:100530000D891E892F85388949895A89E616F7065B
:100540000807190788F42E153F054007510709F4DD
:100550005EC08E818B838F818C8388858D83EF86AF
:10056000F88A098B1A8B42C0A880B12CC12CD12CDF
:100570008E811F921F921F928F93C301B2010E941E
:10058000EB106B83A980B12CC12CD12CEB88FC889B
:100590000D891E892F85388949895A898F811F9233
:1005A0001F921F928F93C301B2010E94EB106C83C4
:1005B000AA80B12CC12CD12CEB88FC880D891E8916
:1005C0002F85388949895A8988851F921F921F92E1
:1005D0008F93C301B2010E94EB106D838DB79EB75C
:1005E0000C960FB6F8949EBF0FBE8DBFCE01DF9163
:1005F000CF911F910F91FF90EF90DF90CF90BF9020
:10060000AF907F906F905F904F900C94C701DF91F7
:10061000CF911F910F91FF90EF90DF90CF90BF90FF
:10062000AF907F906F905F904F9008958EBD0000C7
:100630000DB407FEFDCF8EB508952CB52F7D2CBDD2
:100640002CB5237F2CBD2CB52C7F2CBD2DB5216066
:100650002DBDFC0181810E94C70C85E090E00C94C7
:10066000E20AFC018081918189130C94C70C0895E2
:1006700060E00C941D0361E00C941D03EF92FF9267
:100680001F93CF93DF931F92CDB7DEB77C016983B1
:100690000E9438036981862F8F710E9416038FEFA5
:1006A0000E941603182FC7010E943B03812F0F9051
:1006B000DF91CF911F91FF90EF900895CF92DF923D
:1006C000EF92FF920F931F93CF93DF9300D0CDB79C
:1006D000DEB78C01F22E4A835B8369830E94380364
:1006E0006981862F8F7180620E941603E82E4A81ED
:1006F000C42E5B81D52EF40EFC1431F0F6018191ED
:100700006F010E941603F8CFC8010E943B038E2D93
:100710000F900F900F90DF91CF911F910F91FF904D
:10072000EF90DF90CF900895EF92FF921F93CF93B9
:10073000DF931F921F92CDB7DEB77C014A83698396
:100740000E9438036981862F8F7180620E94160390
:10075000182F4A81842F0E941603C7010E943B0371
:10076000812F0F900F90DF91CF911F91FF90EF900D
:100770000895AF92BF92DF92EF92FF920F931F9373
:10078000CF93DF9300D0CDB7DEB78C01FC01E580BD
:10079000F42EE41608F4FE2CF8018681811102C0C3
:1007A000EF1801C0E12CC80129836A837B830E9472
:1007B00038032981822F0E941603D82E6A81A62E23
:1007C0007B81B72EF60EFA1431F0F50181915F01AD
:1007D0000E941603F8CFEE2029F080E00E94160355
:1007E000EA94F9CFC8010E943B038D2D0F900F9022
:1007F0000F90DF91CF911F910F91FF90EF90DF90BD
:10080000BF90AF900895AF92BF92DF92EF92FF92A8
:100810000F931F93CF93DF931F921F92CDB7DEB735
:100820008C01FC01E580F42EE41608F4FE2CF8019E
:100830008681811102C0EF1801C0E12CC8016983D3
:100840007A830E94380381E60E941603D82E6981BC
:10085000A62E7A81B72EF60EFA1439F08FEF0E9489
:100860001603F50181935F01F7CFEE2029F08FEF9A
:100870000E941603EA94F9CFC8010E943B038D2D14
:100880000F900F90DF91CF911F910F91FF90EF90FC
:10089000DF90BF90AF900895EF92FF921F93CF9398
:1008A000DF931F92CDB7DEB77C0169830E943803C6
:1008B0006981862F0E941603182FC7010E943B03EF
:1008C000812F0F90DF91CF911F91FF90EF900895AE
:1008D00062EE0C944C0461EE0C944C046FEF0C949B
:1008E0004C04FC0160834183148280E2858316827C
:1008F00085E0848717820895462F6E3708F04DE70C
:1009000065E00C949403CF93DF93EC0160E00E94C8
:1009100031038D859E850E94E20A6DE1CE010E9421
:100920003E0381FF07C08D859E850E94E20ACE01AD
:100930000E946B0460E0CE010E943E03482F4E7F70
:1009400060E0CE010E94940362E0CE010E943E036B
:10095000E8EEF1E0E49121E030E001C0220FEA95F9
:10096000EAF7822B482F62E0CE01DF91CF910C9401
:100970009403CF93DF93EC0160E00E943E0381FD7E
:1009800012C060E0CE010E943E03482F426060E04A
:10099000CE010E94940365E070E080E090E0DF917A
:1009A000CF910C94BA0ADF91CF9108950F93CF9312
:1009B000DF93EC01222311F020EB01C020EACE01ED
:1009C0000E94B903002339F061E0CE01DF91CF919D
:1009D0000F910C943103DF91CF910F9108950F93F4
:1009E000CF93DF93EC0101E00E94D604CE010E9478
:1009F0006E048073D9F360E0CE010E94310340E7BA
:100A000067E0CE010E94940384FF05C0CE010E94DE
:100A10006B0480E001C081E0DF91CF910F910895D8
:100A20000F931F93CF93DF938C01EB0167E10E943B
:100A30003E0380FD0BC0209759F0C8010E946E0450
:100A400090E0959587958770888302C080E001C00B
:100A500081E0DF91CF911F910F91089560E070E0E8
:100A60000C941005CF93DF93EC010E94030440E740
:100A700067E0CE01DF91CF910C9494030F931F9305
:100A8000CF93DF93EC018B012C85AB016AE00E94D0
:100A90005E032C85A80160E1CE010E945E034D81BA
:100AA00061E1CE01DF91CF911F910F910C949403DE
:100AB000FF920F931F93CF93DF93EC01F62E8A01E1
:100AC000611107C04C8550E0B80107960E940312DF
:100AD00007C086E0861708F437C081E0681307C0B6
:100AE000EF2DF0E0EE51FE4F64912C8506C0E62F0D
:100AF000F0E0EE51FE4F649121E0A801CE010E948A
:100B00005E030F2D10E0F801E452FE4F64914D8119
:100B1000CE010E94940362E0CE010E943E03F801E0
:100B2000E851FE4F049121E030E001C0220F0A9508
:100B3000EAF7822B482F62E0CE01DF91CF911F911F
:100B40000F91FF900C949403DF91CF911F910F911F
:100B5000FF9008951F93CF93DF93EC01162F62E06F
:100B60000E943E03E12FF0E0E851FE4FE49141E0A6
:100B700050E001C0440FEA95EAF74095482362E04F
:100B8000CE01DF91CF911F910C949403CF93DF930B
:100B9000EC010E94B90460E0CE010E943E03482FA0
:100BA000416060E0CE010E94940340E767E0CE011F
:100BB0000E94940361E0CE010E9431038F8188235B
:100BC00049F02C85AE01495F5F4F6AE0CE010E947B
:100BD0005E0304C060E0CE010E94AA056DE1CE0173
:100BE0000E943E0381FF05C0CE01DF91CF910C949E
:100BF0006B04DF91CF910895CF93DF93EC010E94B6
:100C0000380380E50E94160383E70E941603CE0195
:100C1000DF91CF910C943B03662311F04FE301C0A9
:100C200040E061E00C9494031F93CF93DF93EC01B9
:100C3000162F66E00E943E03887F143020F4612F57
:100C4000660F6F5F01C067E0462F482B66E0CE015C
:100C5000DF91CF911F910C949403EF92FF920F9329
:100C60001F93CF93DF931F92CDB7DEB77C018B012B
:100C700066E00E943E03582F577D0230110531F483
:100C800050620BE910E020E030E00DC001301105AA
:100C900029F005E510E020E030E005C0586001E4EF
:100CA00010E020E030E0F701058716872787308BBA
:100CB000452F66E0C70159830E94940366E0C7018F
:100CC0000E943E0391E05981851390E0892F0F9097
:100CD000DF91CF911F910F91FF90EF900895CF93E7
:100CE000DF93EC0188819981891719F061E00E94F6
:100CF0008E0C89819881981719F061E00E948E0C02
:100D00000E94D50660E0CE010E94310361E0CE0171
:100D10000E941D0365E070E080E090E00E94BA0A46
:100D20004CE060E0CE010E9494034FE564E0CE0108
:100D30000E94940362E070E0CE010E942D06882399
:100D400011F081E08C8360E070E0CE010E942D06FE
:100D5000CE010E94FC0540E06DE1CE010E949403AB
:100D600040E06CE1CE010E94940340E767E0CE01D1
:100D70000E9494036CE4CE010E947C04CE010E9488
:100D80006804CE010E946B04CE010E94B90460E0A9
:100D9000CE010E943E03482F4E7F60E0CE010E94AC
:100DA000940380E0DF91CF910895CF93CFB7F8946B
:100DB00080916402811127C0EFEDF2E08491E9E9AE
:100DC000F2E09491E82FF0E0EE0FFF1FE65FFC4F9A
:100DD000A591B4918C91892321F461E085E30E946F
:100DE000C70C61E085E30E948E0C8CB580618CBDE0
:100DF0008CB580648CBD61E084E30E948E0C61E060
:100E000083E30E948E0C809164028F5F8093640262
:100E1000CFBFCF9108950F931F93CF93DF938CE2B1
:100E200093E00E942E05882309F4E9C08CE293E048
:100E30000E942E05882341F04DE06AEA72E08CE2C0
:100E400093E00E943205F2CF62E072E087E493E023
:100E50000E946C0F6091AA027091AB024AE050E0D0
:100E600087E493E00E946D10C3ECD2E000E010E054
:100E7000688170E04AE050E087E493E00E946D10E2
:100E80008881882309F4B4C08DE0809FE001819FB0
:100E9000D00D1124C954DD4FEAEAF2E0DE010190E1
:100EA0000D928A95E1F71C861B860E948B0A6C8343
:100EB0007D838E839F834AE050E0B80187E493E00E
:100EC0000E9465106CE072E087E493E00E94910F4D
:100ED0006C8570E04AE050E087E493E00E94651082
:100EE0006CE072E087E493E00E94910F6B8570E004
:100EF0004AE050E087E493E00E9465106FE072E002
:100F000087E493E00E94910F688179814AE050E084
:100F100087E493E00E94651069E172E087E493E062
:100F20000E94910F888199818A30910524F0BC013B
:100F30006950710904C069E070E0681B790B4AE0F0
:100F400050E087E493E00E94651066E272E087E477
:100F500093E00E94910F8DE0809FE001819FD00D72
:100F60001124C954DD4F4AE050E0688587E493E0DE
:100F70000E9492106CE072E087E493E00E94910F6F
:100F80004AE050E0698587E493E00E9492106CE0AB
:100F900072E087E493E00E94910F4AE050E06A8596
:100FA00087E493E00E9492106CE072E087E493E0A3
:100FB0000E94910F4C815D816E817F812AE030E03B
:100FC00087E493E00E949910609167027091680233
:100FD0006F5F7F4F70936802609367024AE050E052
:100FE00087E493E0DF91CF911F910F910C946D10E6
:100FF0000F5F1F4F2D960930110509F039CFDF9192
:10100000CF911F910F9108955F926F927F928F926F
:101010009F92AF92BF92CF92DF92EF92FF920F9387
:101020001F93CF93DF9387EBC82E82E0D82E92ECEC
:10103000A92E92E0B92EC3ECD2E0812C912C55243C
:10104000539429E0622E712C888181116AC0F501C8
:101050009081911166C00E948B0AF601048115816E
:1010600026813781601B710B820B930B20813181AC
:101070002A3031051CF0F901399703C0F301E21B56
:10108000F30B4091990250919A02E49F9001E59FE1
:10109000300DF49F300D11248901222717FD209572
:1010A000322F061717072807390708F08DC0F501FA
:1010B0005082E2ECF2E0A3ECB2E080E090E02C9110
:1010C000211108C02081222329F08816990611F0E9
:1010D0005C92108201961D963D968930910579F7B4
:1010E0006AE272E087E493E00E94B00FE09095021C
:1010F000F09096020027F7FC0095102FFE01329722
:101100002081319740813197608189E692E00E9489
:101110000B020E948B0AF601648375838683978392
:1011200053C0F5019081992309F44EC081114CC040
:101130000E948B0AF601248135818B01021B130B5F
:1011400089E692E00E94F601209195023091960284
:10115000021713072CF489E692E00E94830234C040
:1011600040919B0250919C0220173107B4F4F90181
:10117000E40FF51F0E171F0784F4E0909702F0901C
:1011800098020027F7FC0095102F20E040E060E077
:1011900089E692E00E940B0217C0240F351F20172A
:1011A000310714F48823B9F2809197029091980244
:1011B000820F931F801791073CF462E372E087E48B
:1011C00093E00E94B00F5882FFEF8F1A9F0A2D966E
:1011D0008DE0C80ED11CEDE0AE0EB11CF9E08F160B
:1011E000910409F031CFDF91CF911F910F91FF90C2
:1011F000EF90DF90CF90BF90AF909F908F907F90B7
:101200006F905F900895E3ECF2E081E0DF011197C9
:101210001C9280833D9693E0E833F907B9F708956F
:1012200061E080918F020E948E0C61E080919102BA
:101230000E948E0C61E0809193020C948E0C0E94AF
:1012400003090E9410098CE293E00E946F0660E09F
:101250008CE293E00E940C0662E08CE293E00E9434
:10126000140626E040E855E260E070E087E493E091
:101270000E940F0E66E072E08CE293E00E943E0551
:1012800046E052E061E08CE293E00E94580589E07C
:1012900090E090939E0280939D0281E090E0A0E018
:1012A000B0E08093810290938202A0938302B09376
:1012B00084028CE293E00E94C60561E172E087E45B
:1012C00093E00C949E0F8CE293E00E94830468EFFD
:1012D00071E087E493E00E946C0F4AE050E069E01F
:1012E00070E087E493E00E946D102FEF30E040E063
:1012F00050E060E070E0CB010E94CF106093A50247
:101300002FEF30E040E050E060E070E0CB010E9461
:10131000CF106093A6022FEF30E040E050E060E095
:1013200070E0CB010E94CF106093A70221E04DE056
:101330006DE972E08CE293E00E94EF04811106C037
:1013400061EF71E087E493E00E949E0F8CE293E0EE
:101350000E94C6056EEE71E087E493E00C949E0F48
:101360000F931F93CF93DF93809165020E944F0BE1
:10137000EC010E948B0A6093850270938602809331
:101380008702909388022091040230910502C217CF
:10139000D30764F1009181021091820220918302AF
:1013A00030918402DC01CB01801B910BA20BB30BAB
:1013B000853F9140A105B105C8F06AE372E087E47A
:1013C00093E00E94910F4AE050E0BE0187E493E071
:1013D0000E946D100E9463090E948B0A6093810233
:1013E000709382028093830290938402DF91CF9165
:1013F0001F910F9108950E94B0090E940B070C9451
:1014000004080F9348E067E08CE293E00E947104C7
:101410001092890210928A0210928B0283E090E06F
:101420009093900280938F0285E090E090939202D7
:101430008093910286E090E09093940280939302CF
:1014400084EF91E090939602809395029093980296
:101450008093970290939A028093990284E690E099
:1014600090939C0280939B0200E026E030E045E0F0
:1014700050E063E070E089E692E00E9438020F914C
:1014800008951F920F920FB60F9211242F933F933E
:101490008F939F93AF93BF9380913F0390914003AD
:1014A000A0914103B091420330913E0323E0230F0A
:1014B0002D3720F40196A11DB11D05C026E8230F8C
:1014C0000296A11DB11D20933E0380933F0390938C
:1014D0004003A0934103B093420380914303909152
:1014E0004403A0914503B09146030196A11DB11D8F
:1014F0008093430390934403A0934503B093460322
:10150000BF91AF919F918F913F912F910F900FBEFF
:101510000F901F9018952FB7F89460913F0370912A
:10152000400380914103909142032FBF08953FB73C
:10153000F8948091430390914403A0914503B091A6
:10154000460326B5A89B05C02F3F19F00196A11DA3
:10155000B11D3FBF6627782F892F9A2F620F711D0B
:10156000811D911D42E0660F771F881F991F4A95C4
:10157000D1F70895CF92DF92EF92FF92CF93DF934E
:101580006B017C010E94970AEB01C114D104E104B4
:10159000F10489F00E9432110E94970A6C1B7D0BA6
:1015A000683E734090F381E0C81AD108E108F10861
:1015B000C851DC4FEACFDF91CF91FF90EF90DF90E1
:1015C000CF9008958230910538F0880F991F880FC9
:1015D000991F05970197F1F70895789484B5826073
:1015E00084BD84B5816084BD85B5826085BD85B5C7
:1015F000816085BDEEE6F0E0808181608083E1E876
:10160000F0E01082808182608083808181608083AD
:10161000E0E8F0E0808181608083E1EBF0E08081B0
:1016200084608083E0EBF0E0808181608083E1E989
:10163000F0E0808182608083808181608083E0E946
:10164000F0E0808181608083E1EAF0E08081826067
:101650008083808181608083E0EAF0E08081816026
:101660008083E1E2F1E0808182608083808181601B
:101670008083E0E2F1E0808181608083EAE7F0E04E
:1016800080818460808380818260808380818160AA
:1016900080838081806880831092C10008958633A2
:1016A00008F0865320917B00982F9870277F922B0B
:1016B00090937B00877020910B0290E4299F90010A
:1016C0001124822B80937C0080917A008064809327
:1016D0007A0080917A0086FDFCCF8091780020917D
:1016E000790090E0922B08951F93CF93DF93182FEA
:1016F000EB0161E00E948E0C209711F460E004C0C1
:10170000CF3FD10539F461E0812FDF91CF911F9157
:101710000C94C70CE12FF0E0E25EFD4F449150E0E5
:10172000FA013197E231F10508F09BC0EE58FF4F06
:101730000C94841184B5806884BDC7BD97C084B5FE
:10174000806284BDC8BD92C0809180008068809313
:101750008000D0938900C093880088C08091800069
:10176000806280938000D0938B00C0938A007EC0FB
:1017700080918000886080938000D0938D00C0931A
:101780008C0074C08091B00080688093B000C093DA
:10179000B3006CC08091B00080628093B000C093B1
:1017A000B40064C080919000806880939000D093D2
:1017B0009900C09398005AC08091900080628093F5
:1017C0009000D0939B00C0939A0050C080919000ED
:1017D000886080939000D0939D00C0939C0046C089
:1017E0008091A00080688093A0008091A0008F7BF2
:1017F0008093A000D093A900C093A80037C0809127
:10180000A00080628093A000D093AB00C093AA0098
:101810002DC08091A00088608093A000D093AD007F
:10182000C093AC0023C08091200180688093200188
:10183000D0932901C093280119C0809120018062B2
:1018400080932001D0932B01C0932A010FC0809177
:101850002001886080932001D0932D01C0932C013A
:1018600005C0C038D1050CF04ECF48CFDF91CF91E5
:101870001F91089590E0FC013197E231F10508F0E5
:101880004CC0EC57FF4F0C948411809180008F77EF
:1018900003C0809180008F7D8093800008958091A7
:1018A0008000877FF9CF84B58F7702C084B58F7DA4
:1018B00084BD08958091B0008F7703C08091B000FF
:1018C0008F7D8093B0000895809190008F7707C03E
:1018D000809190008F7D03C080919000877F8093DE
:1018E000900008958091A0008F7707C08091A0009C
:1018F0008F7D03C08091A000877F8093A000089512
:10190000809120018F7707C0809120018F7D03C0D7
:1019100080912001877F809320010895CF93DF93EA
:1019200090E0FC01EC59FD4F2491FC01E655FD4F80
:101930008491882349F190E0880F991FFC01E65FAC
:10194000FC4FA591B49180519D4FFC01C591D4915C
:101950009FB7611108C0F8948C91209582238C93D5
:10196000888182230AC0623051F4F8948C91322F1E
:10197000309583238C938881822B888304C0F894CC
:101980008C91822B8C939FBFDF91CF9108950F9301
:101990001F93CF93DF931F92CDB7DEB7282F30E090
:1019A000F901E25EFD4F8491F901EC59FD4F14916C
:1019B000F901E655FD4F04910023C9F0882321F079
:1019C00069830E943A0C6981E02FF0E0EE0FFF1F5F
:1019D000E051FD4FA591B4919FB7F8948C9161119E
:1019E00003C01095812301C0812B8C939FBF0F9062
:1019F000DF91CF911F910F910895FC01818D228D70
:101A000090E0805C9F4F821B91098F739927089506
:101A1000FC01918D828D981731F0828DE80FF11DB8
:101A2000858D90E008958FEF9FEF0895FC01918DD3
:101A3000828D981761F0828DDF01A80FB11D5D9630
:101A40008C91928D9F5F9F73928F90E008958FEF9E
:101A50009FEF089581ED9EE0892B41F080E090E0BA
:101A6000892B21F00E94D10E811125C080E090E0E9
:101A7000892B41F080E090E0892B21F00E9400004A
:101A800081111CC080E090E0892B41F080E090E063
:101A9000892B21F00E940000811113C080E090E0AA
:101AA000892BA1F080E090E0892B81F00E9400005A
:101AB00081110AC008950E940000D8CF0E94000042
:101AC000E1CF0E940000EACF0C9400000895FC01D1
:101AD000848DDF01A80FB11DA35ABF4F2C91848DB7
:101AE00090E001968F739927848FA689B7892C93EC
:101AF000A089B1898C9180648C93938D848D981387
:101B000006C00288F389E02D80818F7D808308954F
:101B1000CF93DF93EC01888D8823C9F0EA89FB8994
:101B2000808185FD05C0A889B9898C9186FD0FC08B
:101B30000FB607FCF5CF808185FFF2CFA889B98960
:101B40008C9185FFEDCFCE010E94670DE7CFDF912D
:101B5000CF910895CF92DF92FF920F931F93CF936F
:101B6000DF931F92CDB7DEB76C0181E0D6015896A6
:101B70008C9358975B969C915B975C968C915C9745
:101B8000981307C05096ED91FC915197808185FD87
:101B90002EC0F601038D10E00F5F1F4F0F7311274A
:101BA000F02EF601848DF81211C00FB607FCF9CFA4
:101BB000D6015096ED91FC915197808185FFF1CF30
:101BC000C60169830E94670D6981EBCF838DE80FA1
:101BD000F11DE35AFF4F6083D6015B960C935B9730
:101BE0005296ED91FC915397808180620CC0D60192
:101BF0005696ED91FC91579760835096ED91FC912C
:101C0000519780818064808381E090E00F90DF9124
:101C1000CF911F910F91FF90DF90CF900895BF92C9
:101C2000CF92DF92EF92FF92CF93DF93EC016A01A4
:101C30007B01B22EE889F98982E08083411581EE2B
:101C4000580761057105A1F060E079E08DE390E04F
:101C5000A70196010E944311215031094109510900
:101C60005695479537952795211580E1380798F0C7
:101C7000E889F989108260E874E88EE190E0A701B4
:101C800096010E944311215031094109510956958D
:101C9000479537952795EC85FD853083EE85FF8543
:101CA0002083188EEC89FD89B082EA89FB898081C6
:101CB00080618083EA89FB89808188608083EA89EA
:101CC000FB89808180688083EA89FB8980818F7DA0
:101CD0008083DF91CF91FF90EF90DF90CF90BF9006
:101CE00008951F920F920FB60F9211240BB60F9208
:101CF0002F938F939F93EF93FF93E0915703F0916E
:101D000058038081E0915D03F0915E0382FD12C073
:101D10009081809160038F5F8F73209161038217A0
:101D200051F0E0916003F0E0E95BFC4F958F809308
:101D3000600301C08081FF91EF919F918F912F915E
:101D40000F900BBE0F900FBE0F901F9018951F9213
:101D50000F920FB60F9211240BB60F922F933F9351
:101D60004F935F936F937F938F939F93AF93BF93A3
:101D7000EF93FF9387E493E00E94670DFF91EF914B
:101D8000BF91AF919F918F917F916F915F914F9193
:101D90003F912F910F900BBE0F900FBE0F901F9091
:101DA000189587E493E00E94FD0C21E0892B09F44B
:101DB00020E0822F089510924A031092490388EE82
:101DC00093E0A0E0B0E080934B0390934C03A0938A
:101DD0004D03B0934E0386E492E0909348038093C2
:101DE000470385EC90E0909354038093530384EC75
:101DF00090E0909356038093550380EC90E090938D
:101E000058038093570381EC90E090935A0380939A
:101E1000590382EC90E090935C0380935B0386EC23
:101E200090E090935E0380935D03109260031092A4
:101E300061031092620310926303089508950E9453
:101E4000ED0A0E941E0F0E941F09CAE2DDE00E94F7
:101E5000FB092097E1F30E942A0DF9CFCF92DF9280
:101E6000EF92FF920F931F93CF93DF936C017A0150
:101E7000EB01E60EF71E00E010E0CE15DF0561F085
:101E80006991D601ED91FC910190F081E02DC601A0
:101E90001995080F191FF1CFC801DF91CF911F913C
:101EA0000F91FF90EF90DF90CF900895611571052D
:101EB00081F0DB010D900020E9F7AD01415051099F
:101EC000461B570BDC01ED91FC910280F381E02D64
:101ED000199480E090E00895EF92FF920F931F9382
:101EE000CF93DF938C01FB01C0E0D0E064917F01D0
:101EF0008FEFE81AF80A662361F0D801ED91FC91A2
:101F00000190F081E02DC8011995C80FD91FF70184
:101F1000EDCFCE01DF91CF911F910F91FF90EF9008
:101F200008950C94560FDC01ED91FC910190F08125
:101F3000E02D199462E572E00C94560F0F931F93F5
:101F4000CF93DF93EC010E946C0F8C01CE010E94B5
:101F50009A0F800F911FDF91CF911F910F910895DC
:101F60000F931F93CF93DF93EC010E94560F8C01C8
:101F7000CE010E949A0F800F911FDF91CF911F9188
:101F80000F9108958F929F92AF92BF92CF92DF925E
:101F9000EF92FF920F931F93CF93DF93CDB7DEB7EE
:101FA000A1970FB6F894DEBF0FBECDBF7C01C42E43
:101FB000E52FCB01D22E19A221E02D1510F02AE039
:101FC000D22E8E010F5D1F4F8D2C912CA12CB12C88
:101FD0006C2D7E2FA50194010E9443118C2DD29E61
:101FE00080191124015011098A3014F4805D01C058
:101FF000895CF8018083211531054105510521F0E7
:10200000C22EE32FCA01E4CFB801C7010E94560FC8
:10201000A1960FB6F894DEBF0FBECDBFDF91CF9172
:102020001F910F91FF90EF90DF90CF90BF90AF90F6
:102030009F908F900895CF92DF92EF92FF920F932F
:102040001F93CF93DF93EC016A017B0121153105CA
:1020500079F4E881F9810190F081E02D642FDF911E
:10206000CF911F910F91FF90EF90DF90CF90199437
:102070002A303105E9F477FF1AC06DE20E94930F10
:102080008C0144275527BA014C195D096E097F0957
:102090002AE0CE010E94C20F800F911FDF91CF91E5
:1020A0001F910F91FF90EF90DF90CF9008952AE05D
:1020B000B701A601CE01DF91CF911F910F91FF9043
:1020C000EF90DF90CF900C94C20F9A01AB0166277E
:1020D00057FD6095762F0C941B100F931F93CF9391
:1020E000DF93EC019A01AB01662757FD6095762FCF
:1020F0000E941B108C01CE010E949A0F800F911F2D
:10210000DF91CF911F910F9108952115310541F471
:10211000DC01ED91FC910190F081E02D642F199488
:102120000C94C20F9A01462F50E060E070E00C94CE
:1021300085100F931F93CF93DF93EC010E948510BE
:102140008C01CE010E949A0F800F911FDF91CF91D9
:102150001F910F910895CF93DF9300D01F92CDB7B9
:10216000DEB79B01AC01611571058105910569F030
:1021700069833A834B835C830E94F61129813A81FB
:102180004B815C810E94651103C060E070E0CB016F
:102190000F900F900F900F90DF91CF910895CF92F5
:1021A000DF92EF92FF926B017C0162177307840745
:1021B000950764F4CA01B9016C197D098E099F095C
:1021C0000E94AB106C0D7D1D8E1D9F1DFF90EF902A
:1021D000DF90CF9008954F925F926F927F92AF926F
:1021E000BF92CF92DF92EF92FF920F931F93CF9304
:1021F000DF93CDB7DEB729013A01621B730B840B65
:10220000950B2A893B894C895D892A193B094C0920
:102210005D092A8B3B8B4C8B5D8B9B01AC016A89E2
:102220007B898C899D890E943311E418F508060981
:102230001709A80197010E9465112A0D3B1D4C1D2D
:102240005D1DCA01B901DF91CF911F910F91FF90E0
:10225000EF90DF90CF90BF90AF907F906F905F90A6
:102260004F9008950895DB018F939F930E948A11E8
:10227000BF91AF91A29F800D911DA39F900DB29F22
:10228000900D11240895A1E21A2EAA1BBB1BFD017B
:102290000DC0AA1FBB1FEE1FFF1FA217B307E40745
:1022A000F50720F0A21BB30BE40BF50B661F771F9D
:1022B000881F991F1A9469F760957095809590957D
:1022C0009B01AC01BD01CF010895052E97FB1EF4C3
:1022D00000940E947C1157FD07D00E94431107FC17
:1022E00003D04EF40C947C11509540953095219577
:1022F0003F4F4F4F5F4F0895909580957095619532
:102300007F4F8F4F9F4F0895EE0FFF1F0590F49161
:10231000E02D19940E949911A59F900DB49F900DE6
:10232000A49F800D911D112408950790F691E02D32
:102330001994A29FB001B39FC001A39F700D811D8E
:102340001124911DB29F700D811D1124911D0895BE
:102350008F929F92AF92BF92CF92DF92EF92FF92B5
:10236000CF93DF93EC01688179818A819B8161152C
:1023700071058105910521F464E279ED8BE597E023
:102380002DE133EF41E050E00E94651149015A010F
:102390009B01AC01A7EAB1E40E948A116B017C01A8
:1023A000ACEEB4EFA50194010E940F12C60ED71E29
:1023B000E81EF91EF7FE06C081E0C81AD108E10840
:1023C00080E8F80AC882D982EA82FB82C701B60196
:1023D0009F77DF91CF91FF90EF90DF90CF90BF90EC
:1023E000AF909F908F9008950C94A81180E092E098
:1023F0000C94A81160930002709301028093020272
:10240000909303020895FB01DC0102C001900D923C
:1024100041505040D8F70895B7FF0C948A110E949C
:0C2420008A11821B930B0895F894FFCFE3
:10242C0001000000020063616E616C01202000203D
:10243C0073656E6465723A20002064697374616E12
:10244C006369613A2000207C2000207061736F3139
:10245C002000207061736F3420006B6E6F636B21F2
:10246C00200000000000AA0D2E0FFD0C160D080D0B
:10247C00880D0D0A006E616E00696E66006F7666DF
:04248C00002E00001E
:00000001FF
